:020000003E2A96
:1000060083124D08BF004E08C000C101C201013075
:04001600BE00080020
:10001A00831203132230FC00F801F901FA01FB01F3
:10002A00FC03031943280310FB0CFA0CF90CF80C17
:10003A00F30CF20CF10CF00C031C1528FC03031949
:10004A0035287408F80775080318750FF907760834
:10005A000318760FFA0777080318770FFB07192892
:10006A007408F80775080318750FF9077608031856
:0E007A00760FFA0777080318770FFB070800C8
:10008800710DF80DF90D7408F8027508031C750F49
:10009800F902F00DF10D0F30FC00710DF80DF90D9E
:1000A8007408701C5D28F8027508031C750FF902A6
:1000B8006228F80775080318750FF907F00DF10D98
:1000C800FC0B512870186E287408F8077508031877
:0800D800750FF9070000080094
:1000E00083127408003A031D7E287508003A031D28
:1000F0007E28FF30F0007F30F100D72883120313F1
:10010000FD01F901F8017108700403190034710848
:100110007506FA00FA1BFD09FB01F51F9428F40986
:10012000F509F40A0319F50AF11F9B28F009F109F2
:10013000F00A0319F10A71087504FA00FA1BB028D5
:1001400044207B18C328FD1F0034F009F109F00A90
:100150000319F10AF809F909F80A0319F90A003430
:10016000F51FBF28F11BBB287108F9007008F800C3
:10017000F101F001A328F101F001F00A0034F109C6
:10018000F009FB0AA028F80A0319F90A7408780292
:10019000031DA32875087902031DA328F901F8019E
:1001A000F00A0319F10AF11FA3280000FF34080028
:1001B00083120313FB01FA01F9018030F800F10CFE
:1001C000F00C031CEC287408F90775080318750F68
:1001D000FA070318FB0A0310F01FF4287408FA0743
:1001E00075080318750FFB07FB0CFA0CF90CF80CDB
:1001F000031CDF287B08F3007A08F2007908F1007D
:060200007808F000080080
:0C020600831246088A00450882000800A8
:1002120083123E08031D12290130CD000030CE00AA
:1002220003203F08F0004008F1004108F2004208B4
:10023200F3006D30F4004E30F500C630F600413068
:10024200F7000D203930F5003030F600F701F801E3
:100252007008F50771080318710FF6077208031882
:10026200720FF70773080318730FF8077708F00087
:100272007808F1000030F81BFF30F300FF30F00582
:100282007F30F1050030F205F3057008BF007108F8
:0C029200C0007208C1007308C200080020
:10029E00092147084902F2004808031C013E4A02A0
:1002AE00F3007208013EF40000300318013E73079C
:1002BE00F50070207808F0007908F1004708F00783
:0A02CE0048080318013EF10708007C
:1002D800D0308312C9000730CA00CB01CC01D0301E
:1002E800F0000730F1000030F2000030F30047085A
:1002F800F4004808F500F601F7010D207008C90060
:100308007108CA007208CB007308CC000030730271
:10031800031D982900307202031D982902307102CA
:10032800031D9829B230700203189B29DA29B230CC
:10033800F0000230F100F201F3017008C9027108FF
:10034800031C710FCA027208031C720FCB027308D8
:10035800031C730FCC020530F00070080319BB2989
:10036800CC0CCB0CCA0CC90CCC13FF3EB2294908E3
:10037800F0004A08F1004B08F2004C08F300013085
:10038800C902031CCA02031CCB02031CCC0270085E
:100398007104720473040319DA29000000000000D4
:0E03A80000000000000000000000BB2908005B
:1003B6008312C703C7034708003C0318E729C7038E
:1003C600000000000000DE29000000000000000020
:0403D600000008001B
:0A03DA00831293011512951208001A
:1003E40083161208013EF000F1010318F10A83128A
:1003F4004708F400F501D8200630F2007008F40034
:100404007108F500720803190C2AF50CF40CF513A5
:10041400FF3E052A0430F1007408F0007108031946
:10042400172AF00D7010FF3E112A30307005F300CA
:100434007408F0007508F100F10CF00CF113F10CE4
:10044400F00CF113700893000F30950573089504B0
:0204540008009E
:0E04560083160511831212150C309504080050
:1004640003218A110A128000840AC50A0319C60AE4
:08047400F003031D322A080009
:10047C00C8308312A000A1014C30A2000430A300AC
:10048C00A401A5012830A600A701A801A901AA0171
:10049C00AB01FF30AC00AD01E630AE00AF01A030D7
:1004AC00B000B101B201B3012030B4000330B5008B
:1004BC007830B600B701B801B9015030BA00BB01B1
:1004CC006430BC00BD01473083168F0083129F013E
:1004DC000730990083169F01850183128501121440
:1004EC009210633083169200ED212B223608C70040
:1004FC003708C8003008C9003108CA004F217008FD
:10050C00B8007108B9003608C7003708C8003008B1
:10051C00C9003108CA004F217008AA007108AB004D
:10052C002E08C7002F08C8002C08C9002D08CA00C7
:10053C004F217008A8007108A9003408C7003508BD
:10054C00C8002208C9002308CA004F217008B20055
:10055C007108B3003408C7003508C8002208C90068
:10056C002308CA004F217008A4007108A5003808A0
:10057C00C3003908C40080304406F00080302906DE
:10058C007002031DCB2A280843020318D72A4308FC
:10059C00C700F2213208C700DB21C30A0319C40AC1
:1005AC00C12A2608C7002708C8003A08C9003B081A
:1005BC00CA004F217008C7007108C8006C212808B8
:1005CC00C3002908C40080304406F00080302B069C
:1005DC007002031DF32A2A084302031C002B430854
:1005EC00C700F2212408C700DB210130C302031C21
:1005FC00C403E92A3C08C7003D08C8002008C9000C
:10060C002108CA004F217008C7007108C8006C216E
:04061C007C2A0F2BFA
:02400E00F40FAD
:00000001FF
